{
  "_format": "hh-sol-artifact-1",
  "contractName": "Database",
  "sourceName": "contracts/Database.sol",
  "abi": [
    {
      "inputs": [],
      "name": "readInboxMessages",
      "outputs": [
        {
          "components": [
            {
              "internalType": "address",
              "name": "sender",
              "type": "address"
            },
            {
              "internalType": "uint256",
              "name": "timestamp",
              "type": "uint256"
            },
            {
              "internalType": "string",
              "name": "subject",
              "type": "string"
            },
            {
              "internalType": "string",
              "name": "msg",
              "type": "string"
            }
          ],
          "internalType": "struct Database.message[]",
          "name": "",
          "type": "tuple[]"
        }
      ],
      "stateMutability": "view",
      "type": "function"
    },
    {
      "inputs": [
        {
          "internalType": "address",
          "name": "contact_key",
          "type": "address"
        },
        {
          "internalType": "string",
          "name": "_subj",
          "type": "string"
        },
        {
          "internalType": "string",
          "name": "_msg",
          "type": "string"
        }
      ],
      "name": "sendMessage",
      "outputs": [],
      "stateMutability": "nonpayable",
      "type": "function"
    }
  ],
  "bytecode": "0x608060405234801561001057600080fd5b506108ce806100206000396000f3fe608060405234801561001057600080fd5b50600436106100365760003560e01c80636fb6df431461003b578063f720460f14610057575b600080fd5b61005560048036038101906100509190610556565b610075565b005b61005f610235565b60405161006c9190610729565b60405180910390f35b600060405180608001604052803373ffffffffffffffffffffffffffffffffffffffff16815260200142815260200186868080601f016020809104026020016040519081016040528093929190818152602001838380828437600081840152601f19601f82011690508083019250505050505050815260200184848080601f016020809104026020016040519081016040528093929190818152602001838380828437600081840152601f19601f8201169050808301925050505050505081525090506000808773ffffffffffffffffffffffffffffffffffffffff1673ffffffffffffffffffffffffffffffffffffffff16815260200190815260200160002081908060018154018082558091505060019003906000526020600020906004020160009091909190915060008201518160000160006101000a81548173ffffffffffffffffffffffffffffffffffffffff021916908373ffffffffffffffffffffffffffffffffffffffff16021790555060208201518160010155604082015181600201908051906020019061020d929190610454565b50606082015181600301908051906020019061022a929190610454565b505050505050505050565b60606000803373ffffffffffffffffffffffffffffffffffffffff1673ffffffffffffffffffffffffffffffffffffffff168152602001908152602001600020805480602002602001604051908101604052809291908181526020016000905b8282101561044b57838290600052602060002090600402016040518060800160405290816000820160009054906101000a900473ffffffffffffffffffffffffffffffffffffffff1673ffffffffffffffffffffffffffffffffffffffff1673ffffffffffffffffffffffffffffffffffffffff168152602001600182015481526020016002820180546103289061080f565b80601f01602080910402602001604051908101604052809291908181526020018280546103549061080f565b80156103a15780601f10610376576101008083540402835291602001916103a1565b820191906000526020600020905b81548152906001019060200180831161038457829003601f168201915b505050505081526020016003820180546103ba9061080f565b80601f01602080910402602001604051908101604052809291908181526020018280546103e69061080f565b80156104335780601f1061040857610100808354040283529160200191610433565b820191906000526020600020905b81548152906001019060200180831161041657829003601f168201915b50505050508152505081526020019060010190610295565b50505050905090565b8280546104609061080f565b90600052602060002090601f01602090048101928261048257600085556104c9565b82601f1061049b57805160ff19168380011785556104c9565b828001600101855582156104c9579182015b828111156104c85782518255916020019190600101906104ad565b5b5090506104d691906104da565b5090565b5b808211156104f35760008160009055506001016104db565b5090565b60008135905061050681610881565b92915050565b60008083601f84011261051e57600080fd5b8235905067ffffffffffffffff81111561053757600080fd5b60208301915083600182028301111561054f57600080fd5b9250929050565b60008060008060006060868803121561056e57600080fd5b600061057c888289016104f7565b955050602086013567ffffffffffffffff81111561059957600080fd5b6105a58882890161050c565b9450945050604086013567ffffffffffffffff8111156105c457600080fd5b6105d08882890161050c565b92509250509295509295909350565b60006105eb83836106b0565b905092915050565b6105fc816107a0565b82525050565b600061060d8261075b565b610617818561077e565b9350836020820285016106298561074b565b8060005b85811015610665578484038952815161064685826105df565b945061065183610771565b925060208a0199505060018101905061062d565b50829750879550505050505092915050565b600061068282610766565b61068c818561078f565b935061069c8185602086016107dc565b6106a581610870565b840191505092915050565b60006080830160008301516106c860008601826105f3565b5060208301516106db602086018261071a565b50604083015184820360408601526106f38282610677565b9150506060830151848203606086015261070d8282610677565b9150508091505092915050565b610723816107d2565b82525050565b600060208201905081810360008301526107438184610602565b905092915050565b6000819050602082019050919050565b600081519050919050565b600081519050919050565b6000602082019050919050565b600082825260208201905092915050565b600082825260208201905092915050565b60006107ab826107b2565b9050919050565b600073ffffffffffffffffffffffffffffffffffffffff82169050919050565b6000819050919050565b60005b838110156107fa5780820151818401526020810190506107df565b83811115610809576000848401525b50505050565b6000600282049050600182168061082757607f821691505b6020821081141561083b5761083a610841565b5b50919050565b7f4e487b7100000000000000000000000000000000000000000000000000000000600052602260045260246000fd5b6000601f19601f8301169050919050565b61088a816107a0565b811461089557600080fd5b5056fea264697066735822122044abd8200841e65c1c14ba80dfb4db716976c681075eee93a972a0cea9683a6f64736f6c63430008040033",
  "linkReferences": {},
  "deployedLinkReferences": {}
}